:10000000801F0020193E000019A60000ED3D0000F1
:10001000ED3D0000ED3D0000ED3D00000000000062
:100020000000000000000000000000007D3600001D
:10003000ED3D00000000000029360000ED3D00000D
:100040002D3700002D3700002D3700002D37000020
:100050002D3700002D3700002D3700002D37000010
:100060002D3700002D3700002D3700002D37000000
:100070002D3700002D3700002D3700002D370000F0
:100080002D3700002D3700002D3700002D370000E0
:100090002D3700002D3700002D3700002D370000D0
:1000A0002D3700002D3700002D3700002D370000C0
:1000B0002D3700002D3700002D3700002D370000B0
:1000C0002D3700002D3700002D3700002D370000A0
:1000D0002D3700002D3700002D3700002D37000090
:1000E0002D3700002D3700002D3700002D37000080
:1000F0002D3700002D3700002D3700002D37000070
:1001000081F0004102E000BF83F0004330B54FEAC8
:1001100041044FEA430594EA050F08BF90EA020F35
:100120001FBF54EA000C55EA020C7FEA645C7FEAC8
:10013000655C00F0E2804FEA5454D4EB5555B8BFEB
:100140006D420CDD2C4480EA020281EA030382EA5C
:10015000000083EA010180EA020281EA0303362DEE
:1001600088BF30BD11F0004F4FEA01314FF4801CC1
:100170004CEA113102D0404261EB410113F0004FD3
:100180004FEA03334CEA133302D0524263EB43038A
:1001900094EA050F00F0A780A4F10104D5F1200E28
:1001A0000DDB02FA0EFC22FA05F2801841F1000183
:1001B00003FA0EF2801843FA05F359410EE0A5F157
:1001C00020050EF1200E012A03FA0EFC28BF4CF088
:1001D000020C43FA05F3C01851EBE37101F000453E
:1001E00007D54FF0000EDCF1000C7EEB00006EEB4B
:1001F0000101B1F5801F1BD3B1F5001F0CD34908D5
:100200005FEA30004FEA3C0C04F101044FEA44522B
:1002100012F5800F80F09A80BCF1004F08BF5FEAB2
:10022000500C50F1000041EB045141EA050130BD92
:100230005FEA4C0C404141EB0101013C28BFB1F5A4
:10024000801FE9D291F0000F04BF01460020B1FAEF
:1002500081F308BF2033A3F10B03B3F120020CDAC2
:100260000C3208DD02F1140CC2F10C0201FA0CF0A0
:1002700021FA02F10CE002F11402D8BFC2F1200C05
:1002800001FA02F120FA0CFCDCBF41EA0C019040BB
:10029000E41AA2BF01EB0451294330BD6FEA040404
:1002A0001F3C1CDA0C340EDC04F11404C4F12002EF
:1002B00020FA04F001FA02F340EA030021FA04F301
:1002C00045EA030130BDC4F10C04C4F1200220FA58
:1002D00002F001FA04F340EA0300294630BD21FA96
:1002E00004F0294630BD94F0000F83F4801306BF5C
:1002F00081F480110134013D4EE77FEA645C18BF50
:100300007FEA655C29D094EA050F08BF90EA020FE6
:1003100005D054EA000C04BF1946104630BD91EADE
:10032000030F1EBF0021002030BD5FEA545C05D1E1
:100330004000494128BF41F0004130BD14F5800420
:100340003CBF01F5801130BD01F0004545F0FE4194
:1003500041F470014FF0000030BD7FEA645C1ABFC9
:10036000194610467FEA655C1CBF0B46024650EA00
:10037000013406BF52EA033591EA030F41F400212C
:1003800030BD00BF90F0000F04BF0021704730B5B2
:100390004FF4806404F132044FF000054FF0000187
:1003A00050E700BF90F0000F04BF0021704730B548
:1003B0004FF4806404F1320410F0004548BF40421D
:1003C0004FF000013EE700BF42004FEAE2014FEA72
:1003D00031014FEA02701FBF12F07F4393F07F4F4D
:1003E00081F06051704732F07F4208BF704793F050
:1003F0007F4F04BF41F40021704730B54FF4607463
:1004000001F0004521F000411CE700BF50EA010265
:1004100008BF704730B54FF000050AE050EA01020E
:1004200008BF704730B511F0004502D5404261EB7E
:1004300041014FF4806404F132045FEA915C3FF4BF
:10044000D8AE4FF003025FEADC0C18BF03325FEA5C
:10045000DC0C18BF033202EBDC02C2F1200300FA0D
:1004600003FC20FA02F001FA03FE40EA0E0021FA32
:1004700002F11444BDE600BF70B54FF0FF0C4CF420
:10048000E06C1CEA11541DBF1CEA135594EA0C0FD2
:1004900095EA0C0F00F0DEF82C4481EA030621EA0D
:1004A0004C5123EA4C5350EA013518BF52EA033548
:1004B00041F4801143F4801338D0A0FB02CE4FF0FA
:1004C0000005E1FB02E506F00042E0FB03E54FF02A
:1004D0000006E1FB03569CF0000F18BF4EF0010E22
:1004E000A4F1FF04B6F5007F64F5407404D25FEA1E
:1004F0004E0E6D4146EB060642EAC62141EA5551D1
:100500004FEAC52040EA5E504FEACE2EB4F1FD0C12
:1005100088BFBCF5E06F1ED8BEF1004F08BF5FEA90
:10052000500E50F1000041EB045170BD06F0004642
:1005300046EA010140EA020081EA0301B4EB5C04EF
:10054000C2BFD4EB0C0541EA045170BD41F48011E7
:100550004FF0000E013C00F3AB8014F1360FDEBF0C
:10056000002001F0004170BDC4F10004203C35DAE8
:100570000C341BDC04F11404C4F1200500FA05F36B
:1005800020FA04F001FA05F240EA020001F000420C
:1005900021F0004110EBD37021FA04F642EB060182
:1005A0005EEA430E08BF20EAD37070BDC4F10C04AC
:1005B000C4F1200500FA04F320FA05F001FA04F270
:1005C00040EA020001F0004110EBD37041F100015C
:1005D0005EEA430E08BF20EAD37070BDC4F1200567
:1005E00000FA05F24EEA020E20FA04F301FA05F2CF
:1005F00043EA020321FA04F001F0004121FA04F277
:1006000020EA020000EBD3705EEA430E08BF20EA46
:10061000D37070BD94F0000F0FD101F00046400080
:1006200041EB010111F4801F08BF013CF7D041EA02
:10063000060195F0000F18BF704703F00046520006
:1006400043EB030313F4801F08BF013DF7D043EAD7
:100650000603704794EA0C0F0CEA135518BF95EA8D
:100660000C0F0CD050EA410618BF52EA4306D1D114
:1006700081EA030101F000414FF0000070BD50EA33
:10068000410606BF1046194652EA430619D094EABD
:100690000C0F02D150EA013613D195EA0C0F05D1A7
:1006A00052EA03361CBF104619460AD181EA0301FB
:1006B00001F0004141F0FE4141F470014FF00000B3
:1006C00070BD41F0FE4141F4780170BD70B54FF04E
:1006D000FF0C4CF4E06C1CEA11541DBF1CEA1355CE
:1006E00094EA0C0F95EA0C0F00F0A7F8A4EB0504B0
:1006F00081EA030E52EA03354FEA013100F08880A7
:100700004FEA03334FF0805545EA131343EA12636F
:100710004FEA022245EA111545EA10654FEA002624
:100720000EF000419D4208BF964244F1FD0404F5DD
:10073000407402D25B084FEA3202B61A65EB030539
:100740005B084FEA32024FF480104FF4002CB6EBF6
:10075000020E75EB030E22BFB61A754640EA0C0076
:100760005B084FEA3202B6EB020E75EB030E22BFB6
:10077000B61A754640EA5C005B084FEA3202B6EBF7
:10078000020E75EB030E22BFB61A754640EA9C00B6
:100790005B084FEA3202B6EB020E75EB030E22BF86
:1007A000B61A754640EADC0055EA060E18D04FEA44
:1007B000051545EA16754FEA06164FEAC30343EAE4
:1007C00052734FEAC2025FEA1C1CC0D111F4801FB1
:1007D0000BD141EA00014FF000004FF0004CB6E7AA
:1007E00011F4801F04BF01430020B4F1FD0C88BF49
:1007F000BCF5E06F3FF6AFAEB5EB030C04BFB6EB54
:10080000020C5FEA500C50F1000041EB045170BD46
:100810000EF0004E4EEA113114EB5C04C2BFD4EB73
:100820000C0541EA045170BD41F480114FF0000EF7
:10083000013C90E645EA060E8DE60CEA135594EA73
:100840000C0F08BF95EA0C0F3FF43BAF94EA0C0F76
:100850000AD150EA01347FF434AF95EA0C0F7FF4EB
:1008600025AF104619462CE795EA0C0F06D152EA3F
:1008700003353FF4FDAE1046194622E750EA410623
:1008800018BF52EA43067FF4C5AE50EA41047FF434
:100890000DAF52EA43057FF4EBAE12E74FEA410297
:1008A00012F5001215D211D56FF47873B3EB6252C2
:1008B00012D94FEAC12343F0004343EA505311F0E9
:1008C000004F23FA02F018BF404270474FF000007B
:1008D000704750EA013005D111F0004008BF6FF0B9
:1008E000004070474FF00000704700BF4FEA4102E0
:1008F000B2F1E04324BFB3F5001CDCF1FE5C0DD97E
:1009000001F0004C4FEAC0024CEA5070B2F1004FC7
:1009100040EB830008BF20F00100704711F0804FCA
:1009200021D113F13872BCBF01F00040704741F48F
:1009300080114FEA5252C2F11802C2F1200C10FA93
:100940000CF320FA02F018BF40F001004FEAC12377
:100950004FEAD32303FA0CFC40EA0C0023FA02F31B
:100960004FEA4303CCE77FEA625307D150EA0133F1
:100970001EBF4FF0FE4040F44000704701F00040C1
:1009800040F0FE4040F40000704700BF80F000409F
:1009900002E000BF81F0004142001FBF5FEA410357
:1009A00092EA030F7FEA226C7FEA236C6AD04FEA57
:1009B0001262D2EB1363C1BFD2184140484041409C
:1009C000B8BF5B42192B88BF704710F0004F40F44E
:1009D000000020F07F4018BF404211F0004F41F46A
:1009E000000121F07F4118BF494292EA030F3FD036
:1009F000A2F1010241FA03FC10EB0C00C3F1200349
:100A000001FA03F100F0004302D5494260EB4000D7
:100A1000B0F5000F13D3B0F1807F06D340084FEA42
:100A2000310102F10102FE2A51D2B1F1004F40EB37
:100A3000C25008BF20F0010040EA0300704749009F
:100A400040EB0000013A28BFB0F5000FEDD2B0FA3C
:100A500080FCACF1080CB2EB0C0200FA0CF0AABF5F
:100A600000EBC25052421843BCBFD04018437047FD
:100A700092F0000F81F4000106BF80F40000013203
:100A8000013BB5E74FEA41037FEA226C18BF7FEADA
:100A9000236C21D092EA030F04D092F0000F08BF1C
:100AA0000846704790EA010F1CBF0020704712F003
:100AB0007F4F04D1400028BF40F00040704712F142
:100AC00000723CBF00F50000704700F0004343F0A7
:100AD000FE4040F4000070477FEA226216BF0846DD
:100AE0007FEA23630146420206BF5FEA412390EAA0
:100AF000010F40F4800070474FF0000304E000BF96
:100B000010F0004348BF40425FEA000C08BF704746
:100B100043F0964301464FF000001CE050EA01020A
:100B200008BF70474FF000030AE000BF50EA01021F
:100B300008BF704711F0004302D5404261EB41010C
:100B40005FEA010C02BF84460146002043F0B64331
:100B500008BFA3F18053A3F50003BCFA8CF2083A56
:100B6000A3EBC25310DB01FA02FC634400FA02FC5F
:100B7000C2F12002BCF1004F20FA02F243EB020066
:100B800008BF20F00100704702F1200201FA02FCC8
:100B9000C2F1200250EA4C0021FA02F243EB0200BB
:100BA00008BF20EADC7070474FF0FF0C1CEAD052FF
:100BB0001EBF1CEAD15392EA0C0F93EA0C0F6FD0C0
:100BC0001A4480EA010C400218BF5FEA41211ED09E
:100BD0004FF0006343EA501043EA5111A0FB01318A
:100BE0000CF00040B1F5000F3EBF490041EAD3715F
:100BF0005B0040EA010062F17F02FD2A1DD8B3F1DB
:100C0000004F40EBC25008BF20F00100704790F049
:100C1000000F0CF0004C08BF49024CEA502040EA9B
:100C200051207F3AC2BFD2F1FF0340EAC250704761
:100C300040F400004FF00003013A5DDC12F1190F9F
:100C4000DCBF00F000407047C2F10002410021FA11
:100C500002F1C2F1200200FA02FC5FEA310040F129
:100C6000000053EA4C0308BF20EADC70704792F0A2
:100C7000000F00F0004C02BF400010F4000F013ADA
:100C8000F9D040EA0C0093F0000F01F0004C02BFD5
:100C9000490011F4000F013BF9D041EA0C018FE744
:100CA0000CEAD15392EA0C0F18BF93EA0C0F0AD04A
:100CB00030F0004C18BF31F0004CD8D180EA010070
:100CC00000F00040704790F0000F17BF90F0004F09
:100CD000084691F0000F91F0004F14D092EA0C0FEB
:100CE00001D142020FD193EA0C0F03D14B0218BF7E
:100CF000084608D180EA010000F0004040F0FE40C4
:100D000040F40000704740F0FE4040F4400070475F
:100D10004FF0FF0C1CEAD0521EBF1CEAD15392EADE
:100D20000C0F93EA0C0F69D0A2EB030280EA010CCE
:100D300049024FEA402037D04FF0805343EA111167
:100D400043EA10130CF000408B4238BF5B0042F1C5
:100D50007D024FF4000C8B4224BF5B1A40EA0C006A
:100D6000B3EB510F24BFA3EB510340EA5C00B3EB9C
:100D7000910F24BFA3EB910340EA9C00B3EBD10F8A
:100D800024BFA3EBD10340EADC001B0118BF5FEADC
:100D90001C1CE0D1FD2A3FF650AF8B4240EBC25005
:100DA00008BF20F0010070470CF0004C4CEA5020C6
:100DB0007F32C2BFD2F1FF0340EAC250704740F415
:100DC00000004FF00003013A37E792F0000F00F007
:100DD000004C02BF400010F4000F013AF9D040EA85
:100DE0000C0093F0000F01F0004C02BF490011F419
:100DF000000F013BF9D041EA0C0195E70CEAD15311
:100E000092EA0C0F08D142027FF47DAF93EA0C0FF7
:100E10007FF470AF084676E793EA0C0F04D14B02DB
:100E20003FF44CAF08466EE730F0004C18BF31F08D
:100E3000004CCAD130F000427FF45CAF31F0004387
:100E40007FF43CAF5FE700BF53B94AB9002908BF40
:100E500000281CBF4FF0FF314FF0FF3000F00CB8FE
:100E6000ADF1080C6DE904CE00F008F8DDF804E0FF
:100E7000DDE9022304B07047704700BF2DE9F04759
:100E800086468C460846089E154674461946002B31
:100E900040F0C2808542B2FA82F245D94AB1C2F12D
:100EA000200300FA02FC2EFA03F3954043EA0C0CEF
:100EB00094404FEA154EA8B2BCFBFEF8230C0EFB83
:100EC00018CC08FB00F943EA0C43994528D9EB18E4
:100ED00008F1FF3704D2994502D9A8F102072B4443
:100EE000A3EB0903A4B2B3FBFEFC0EFB1C330CFB0B
:100EF00000F044EA0344A04214D92C190CF1FF334A
:100F000004D2A04202D9ACF102032C44241A43EAD1
:100F100007401EB1D440002334607360BDE8F08701
:100F20004746DDE76346F1E792BB431B01214FEAE9
:100F3000154EAFB2B3FBFEFC200C0EFB1C330CFBBA
:100F400007F840EA0343984562D9EB180CF1FF30EB
:100F500004D2984502D9ACF102002B44A3EB08035C
:100F6000A4B2B3FBFEFC0EFB1C330CFB07F744EAF8
:100F70000344A7424ED92C190CF1FF3304D2A742E7
:100F800002D9ACF102032C44E41B43EA0040C0E761
:100F9000C2F1200320FA03F1954090402EFA03F3AA
:100FA00003434FEA154EAFB2B1FBFEFC0EFB1C1023
:100FB000190C0CFB07F841EA0041884504FA02F4D9
:100FC00022D969180CF1FF3004D2884502D9ACF15E
:100FD00002002944A1EB08019BB2B1FBFEFC0EFB11
:100FE0001C110CFB07F743EA01439F420ED9EB1893
:100FF0000CF1FF3104D29F4202D9ACF102012B4423
:10100000DB1B41EA004192E76046E3E76146F7E710
:101010006046A3E76346B7E7834206D916B90021C5
:1010200008467BE7C6E900E0F9E7B3FA83F78FB932
:10103000834201D3724508D8BEEB020460EB030380
:1010400001209C461EB9002168E73846FAE7C6E948
:10105000004CF8E7C7F1200CBB4022FA0CF41C430B
:101060002EFA0CF120FA0CF3B84001434FEA144970
:101070000EFA07F5B3FBF9F81FFA84FE09FB1830E6
:101080000B0C08FB0EFA43EA00439A4502FA07F2FA
:1010900040D9E31808F1FF3004D29A4502D9A8F1EB
:1010A00002002344A3EB0A0389B2B3FBF9F809FB5E
:1010B000183308FB0EFE41EA03418E452CD9611816
:1010C00008F1FF3304D28E4502D9A8F1020321446E
:1010D00043EA0040A0FB0298A1EB0E014145CE4639
:1010E000434602D306D14D4504D2B9EB020E68EB5C
:1010F00004030138002EA6D0B5EB0E0261EB03010C
:1011000001FA0CFC22FA07F34CEA0303F940C6E9A2
:10111000003198E74046C5E74346D9E7034613F850
:10112000012B002AFBD1181A01387047000000007B
:1011300013B501210DF1060005F07EFF1A4B984210
:10114000044609D019491A4A1A48242309F0BBF960
:101150002421174809F0B0F905F0C4FFA04207D0D8
:101160001249134A1348272309F0ADF92721F0E764
:10117000BDF90600FFF7C4FCFFF726F906A3D3E983
:101180000023FFF7A3FA06A3D3E90023FFF774F9BE
:10119000FFF7ACFB02B010BD0000000000F88F406C
:1011A0000000006066660A400000AD0B25B6000036
:1011B00017B600003FB5000070B505460C4608683C
:1011C00009F009FD266830B91748316809F0DDF8E3
:1011D0004FF0FF3070BD21790122304600F028F831
:1011E0000021032007F00EFF2846FFF7A1FF217919
:1011F00005460022304600F01BF8002140F6CD40A5
:1012000007F000FF09492846FFF782FDFFF7DCF8E9
:1012100003A3D3E90023FFF72FF9FFF73FFBD9E73B
:101220000000000000F88F403CB60000333353400C
:1012300010B5012303FA01F1436804691B681942E0
:101240000ED10E490E4A0F4840F25C5309F03BF9AB
:101250000D4809F038F90A4840F25C5109F02CF9C0
:101260002368194218BF82F0010222B18368DB684B
:10127000BDE81040184783681B69F9E701B5000015
:10128000D0B400003FB500005CB500002DE9F0418E
:10129000034600681979DB8843F0010203F0300748
:1012A000302FD0E9014605690ED11B491B4A1C4865
:1012B00040F2D72309F007F91A4809F004F940F27F
:1012C000D721164809F0F8F803F00603042B09D1DA
:1012D0001549124A124840F2DE2309F0F4F840F2B0
:1012E000DE21EEE7246801238B4023420CD10F4915
:1012F0000A4A0B4840F2F12309F0E5F80C4809F0DE
:10130000E2F840F2F121DCE72C681C432C603368E2
:10131000BDE8F041184700BF6EB50000D0B4000032
:101320003FB50000A7B50000E4B5000001B500001E
:101330005CB5000030B5072085B005F0B7FD304B37
:101340009842054609D02F492F4A3048792309F0A1
:10135000BAF879212C4809F0AFF82D4A1068516885
:10136000128901AB03C301A81A8005F0CDFDA84284
:10137000044607D02349244A24488B2309F0A3F8C4
:101380008B21E7E705F0F6FD00231A46012105F061
:101390000DFEA04207D01B491B4A1C48922309F0AE
:1013A00092F89221D6E71B48FFF770FF1A48FFF723
:1013B0006DFF002140F6CD4007F024FE1748154D83
:1013C000174C08F0E2FF29460020FFF7F5FE00B2B7
:1013D00020802188134809B208F0D7FF0E49002069
:1013E000FFF7EAFE104B00B2188019880F4809B2C7
:1013F00008F0CBFF00214FF4004007F003FEE2E7C6
:101400000000AD0B25B6000017B600003FB5000088
:10141000E0B1000000B20000F8B1000058B60000D2
:101420008A0D00206FB60000880D00207FB60000F6
:101430002DE9F04F91B00546009302F004030193AB
:10144000C2F3C203013304938307DDF8689002926C
:101450000E4640F0FE81041D30B1072909D86FF017
:101460001B0011B0BDE8F08F01F00706341DC6F176
:101470000806009B4FF000084FF0040B591ECDF8F2
:101480000C80474643464FF0FF32DA460DB10098D4
:1014900020600498002800F3E1809C48DDF800C03B
:1014A000844503D39A488445C0F0D880DDF808C04D
:1014B000A4EB050E1CF0020F4FEA9E0000F0E9803D
:1014C0004FF0000CD3E07A2864D84B280FD8472877
:1014D00060D829282FD825285BD05BD820287FD03A
:1014E000A0F12309D9F1000343EB090378E0A0F14F
:1014F0004C0EBEF12E0F4DD8DFE80EF0724C4C4C66
:101500004C4C4C4C4C4C4C4C4E4C4C4C4C4C4C4C19
:101510004C5C4C4E4E5C5C5C724E6F4C724C184E88
:10152000184C4C817E4E4C4C4E4C7E0000200023CB
:101530004FF0040B3CE0A0F12A0E5FFA8EFE012072
:1015400000FA0EFE4FF6DA701EEA000F48D11EF0C8
:1015500062502FD11EF0010342D0013C5C44CBF11C
:10156000000E04EA0E04002D5ED0AAEB050EA64480
:101570007645FFF474AF002868D1BAF1040F43D167
:10158000E14659F8040B20600434CC464FF0040ABD
:1015900026E0013A002323E011F8013C6C2B30D106
:1015A00011F8023C00206C2B0346C1D14FF0080B10
:1015B000DA46D2E70CF1070929F0070C0734FCE8FA
:1015C00002AB24F0070435B105982044B0423FF641
:1015D00046AFC4E900AB083400234FF0080BDA46ED
:1015E00011F8010F002800F0BC80002B7FF46BAFD6
:1015F0002528F5D1013201234FF0040BEFE71846FF
:1016000095E700200346A8E7BAF1080F40F09B8059
:101610000CF1070929F0070CFCE8029AC4E9009ACA
:1016200008344FF0080ADBE780B9BAF1040F02D1A1
:101630000CF10409A8E7BAF1080F40F084800CF11E
:10164000070929F0070909F1080CE9E70498E146C0
:101650000138049059F8040B009017E702988007AE
:1016600048D5A4EB050E4FEA9E004FF0010CBEF5E5
:10167000007F1DD32749284A284840F27B2308F0E1
:1016800022FF274808F01FFF40F27B21224808F084
:1016900013FF0F2F0ED8002D46D007F1400CEC445D
:1016A0000CF8200C0CF8102C03980130039020E06B
:1016B0000F2F0CD91749184A18484FF4207308F017
:1016C00002FF184808F0FFFE4FF42071DEE7BDB1BD
:1016D00007F1400EEE44C0B20EF8200C0EF8102CAC
:1016E000BCF1000FE0D060F07F000EF8200C08F194
:1016F00001080137C5F108000434CC4605906FE7B6
:10170000BCF1000F10D00136F3E700BF6CAE000053
:10171000E8D60000F6C90000A4B600003FB50000FE
:10172000D2B60000F3B60000019802360028E0D1DE
:1017300000980592CDE90631FFF7F0FCDDE90631AE
:10174000059A0644D5E7444A4449454840F2C52332
:1017500008F0B9FE5146434808F0B5FE40F2C521F5
:1017600094E7631BB3F5806F0CD33C493A4A3C487D
:1017700040F2D12308F0A7FE3B4808F0A4FE40F257
:10178000D12183E71DB9A6F10804E01869E6019AA2
:1017900028609B082B709DF80C30C2B1EB7085F867
:1017A0000280B8F1000F05D008A80022C5F1010C95
:1017B00097420ED1C5F101030DF120094FF0000A47
:1017C00002930DF1300B574512D1601B49E66B7047
:1017D000E5E710F8013B190608D504EB0C0E764539
:1017E00003F07F03FFF43BAE04F8013B0132DFE777
:1017F000B8F1000F03D099F90020002A17DB019BF4
:10180000D3B11AF80B2004F8012B0022029B981880
:1018100020448642FFF423AE99F8000004F8010B3F
:1018200000990392204609F0FAFA039A14440AF147
:10183000010A09F10109C6E799F8002055F822309C
:101840000093019B45F822300098FFF767FC421C8B
:10185000DCE76FF00D0004E6A4B60000F6C9000056
:101860003FB500000DB7000022B70000014B186023
:10187000704700BFB00000202DE9F84F044608462D
:10188000A38B1907154612D4022803F0070164D16F
:10189000204608F091FD88B10138042800F2348117
:1018A000DFE810F05B0032018100D1000101012866
:1018B0000CBF43F0100143F02001A18314342046F3
:1018C00006F0EAF8002840F09B819849984A994828
:1018D000C22308F0F8FD2146B0E003F00702501FD4
:1018E00001281ED80020062A2768C4E9000014D168
:1018F0003A4603E0E08B0130E0831268002AF9D118
:1019000023F0070343F00202A283204608F054FDAF
:1019100090B342F02002A2832EE023F007039AB294
:10192000F2E7042A33D123F007039AB2A2832046B8
:1019300008F042FD10B142F02002A283A38B03F015
:101940000709894540F0EA80A18BCA0640F14F8122
:1019500021F01003A38301F00701D4F81880A38BB2
:10196000B8F1000FB9DA0022276823F00703C4E9B1
:10197000002243F00103A383A38B03F007098945E9
:1019800040F0CD80002FDFD00026B24644E06A4907
:101990006A4A684840F21B1308F095FD40F21B119B
:1019A000664808F089FD49B16549644A61484FF4C9
:1019B000AB7308F088FD4FF4AB71F1E723684BB9C6
:1019C00060495E4A5B4840F2571308F07CFD40F2E4
:1019D0005711E5E723691E684EB95B49574A5548D8
:1019E0004FF4AD7308F06FFD4FF4AD71D8E7A38BE2
:1019F00023F0070343F006039BB2A3830F468846F8
:101A00004FF00609A268002A40F08B80002F40F0BA
:101A10008B80002E98D0BA4643F0080304F1140BD3
:101A2000A383584606F038F8002840F097803F49D5
:101A30003F4A4048C22308F046FD5946434808F053
:101A400042FDC221AEE0022909D041493B4A394852
:101A500040F25D1308F037FD40F25D11A0E7E78B1F
:101A60004FB13C49354A33484FF4AF7308F02BFD72
:101A70004FF4AF7194E723695E684EB932492F4A3B
:101A80002C4840F2611308F01EFD40F2611187E717
:101A9000A38B23F0070343F004039BB2A383B84650
:101AA0004FF00409AEE7012909D02B49234A214808
:101AB0004FF4B27308F007FD4FF4B27170E723687A
:101AC0004BB920491D4A1B4840F2651308F0FBFC46
:101AD00040F2651164E723699E684EB91A49174AB6
:101AE00014484FF4B47308F0EEFC4FF4B47157E7A8
:101AF000A38B23F0070343F005039BB20027A383C6
:101B0000B8464FF005097DE70B490C4A094840F2F9
:101B10006B1308F0D8FC40F26B1141E70027002658
:101B200070E74FF0010A77E7924675E71AB80000B0
:101B3000EDB700003FB50000F6C900004AB700004D
:101B40006CB7000078B700009BB7000031B8000008
:101B5000B2B70000C8B70000D7B7000085F31188FE
:101B6000BFF36F8FBAF1000F1ED1002F2FD116B126
:101B700026492046B0474FF02003EFF3118583F349
:101B80001288BFF36F8F584605F078FF38BB204AA4
:101B900020492148942308F096FC59461F4808F034
:101BA00092FC94211A48FCE6A1680029DDD00D685A
:101BB0000029DAD0D1F804A043464A462046D0474F
:101BC0001DB12B6829461D46F2E72B46FAE7394638
:101BD00043464A4620463F6808F01AFCC5E7584687
:101BE00005F06AFFA38B23F00803A383ACE68B0602
:101BF0007FF564AE21F02003A38301F0070147E6DF
:101C000085F31188BFF36F8FBDE8F88F211C0000AA
:101C1000EDB7000046B800003FB500005BB800001B
:101C2000F8B504460D4600F114064FF02003EFF31B
:101C3000118783F31288BFF36F8F304605F01EFFC4
:101C400068B90C4A0C490D48942308F03CFC0C4838
:101C5000314608F038FC0748942108F02DFC304646
:101C600005F02AFFA5613A4620460121BDE8F8406B
:101C7000FFF702BEEDB7000046B800003FB5000018
:101C80005BB800002DE9F04704460F4608F0B0FBB2
:101C9000051E67DB04F114094FF02003EFF3118AEE
:101CA00083F31288BFF36F8F484605F0E7FE804646
:101CB00060B9384A38493948942308F004FC494649
:101CC000374808F000FC9421324840E0484605F0CF
:101CD000F3FEE38BA68B4FF6FF72934206F00706E6
:101CE00043D0022E13D10133E3833546484605F035
:101CF000D3FE00283FD1274A2A492848C22308F0AA
:101D0000E2FB4946284808F0DEFBC221DCE7062E4C
:101D100013D8DFE806F0092D1212090409006FF04C
:101D200085054FF00008E1E700233B60636883B955
:101D3000C4E9007786B13546F3E71C4917481C4AC9
:101D40004FF4E47308F0BFFB19484FF4E47108F056
:101D5000B3FB1F606760EDE7524602212046FFF7A4
:101D60008BFD35462846BDE8F0876FF00A05D8E7B9
:101D70006FF00405D5E78AF31188BFF36F8FB8F1D0
:101D8000000FEFD0002332463946204608F040FBD2
:101D9000E8E700BFEDB7000046B800003FB500001F
:101DA0005BB800001AB8000031B80000D7B70000D7
:101DB0004AB7000008B54268816002F00302022AB7
:101DC00003460AD0032A4FF0000103D0012A0AD1AA
:101DD000596006E01868596008BD186800225A600A
:101DE00058B90020F8E706490648074A452308F095
:101DF0006AFB0548452108F05FFB07F00BFEF0E7A2
:101E0000F6C900003FB5000073B80000F0B5094EF8
:101E1000016802460A2700200B4601311C78355D17
:101E20006D0701D41360F0BD07FB0043A3F1300040
:101E3000F2E700BFE5D500002DE9F84F15469A46B8
:101E4000D378224A12F803B06F2B80460F460BF06E
:101E5000030B29D024D8582B0CBF10260A26DDF8F6
:101E600028903246002340463946FEF7EDFF092A06
:101E7000D4B21ED83034B045E4B277F1000709F887
:101E8000014D01D3D14511D82B789B0605D5082EDD
:101E900015D1AB7843F00803AB704846BDE8F88F26
:101EA00003F0F703702BD7E70826D8E780460F46E4
:101EB000D7E7BBF1010F0CBF37345734DBE7102EE7
:101EC000EBD1AB7843F01003E6E700BFE5D50000A7
:101ED0002DE9F04F97B08A46039016461C46002520
:101EE000307808B928464BE3731C2528049307D0A3
:101EF000039B514698470028C0F242830135F0E128
:101F00001822002110A808F098FF7378252B00F004
:101F1000A3800023711C98469E469C4618460F4697
:101F200011F8012B2B2A00F0C68000F2BD80202A78
:101F300000F0C480232A00F0C4802BB19DF8483003
:101F400043F040038DF84830B8F1000F05D09DF8FC
:101F5000483043F020038DF84830BEF1000F05D023
:101F60009DF8483043F010038DF84830BCF1000F65
:101F700005D09DF8483043F008038DF8483028B16B
:101F80009DF8483043F004038DF848309DF8483000
:101F900003F04401442903D16FF386138DF84830D0
:101FA0009DF84830099743F080032A2A8DF848307D
:101FB00040F08C809DF8493043F001038DF84930A2
:101FC0007B1C1A782E2A9DF849200CBF0121002184
:101FD00061F341028DF849200CD15A1C09925A78BC
:101FE0002A2A40F083809DF8492042F004028DF8AF
:101FF000492002331A786C2A00F0A48000F286800F
:10200000682A00F08C806A2A00F0A5804C2A00F033
:10201000AA801A4612F8013B0492782B9DF84920B9
:102020008DF84B3000F217816D2B00F2A980692BDF
:1020300000F21181572B00F2BE80412B03D0453BAB
:10204000022B00F208819DF84A30042262F3020359
:102050008DF84A300123CAE0B21C04928DF84B304F
:102060009DF84930D90740F1FD8054F8048BB8F150
:10207000000F07DA9DF8482042F004028DF848204E
:10208000C8F100085A0740F1F68054F804BBBBF1D0
:10209000000F80F2F5809DF849306FF341038DF811
:1020A00049304FF0FF3BEBE02D2A0DD0302A7FF472
:1020B00044AF012333E74FF0010C30E74FF0010E3E
:1020C0002DE74FF001082AE7012028E709A8FFF7CC
:1020D0009DFE099BBB423FF474AF9DF848201390CE
:1020E000C00F60F341028DF848206AE709A8FFF7A6
:1020F0008DFE9DF848301490C3F3400242EAD0723E
:1021000062F341038DF84830099B73E7742A26D0A7
:102110007A2A7FF47EAF9DF8492006210CE05A7898
:10212000682A9DF8492006D1012161F3C6028DF885
:10213000492002336DE7022161F3C6028DF8492080
:10214000013366E75A786C2A9DF8492001D10421B1
:10215000EBE70321F0E79DF849200521ECE79DF826
:1021600049200721E8E7BDF8482022F4F04222F098
:10217000020242F4804242F00202ADF84820DFE75A
:102180006E3BD9B201238B4040F282410B4238D1E1
:1021900013F0240F52D1DF075DD59DF84A3003219B
:1021A00061F302038DF84A3002F07803A3F1400096
:1021B000434243411BE0A3F15801C9B2012000FA98
:1021C00001F111F4624F7FF43EAF40F6010739424E
:1021D0001DD111F4043F3ED09DF84A3060F3020354
:1021E00002F07802402A8DF84A3034D000239DF85E
:1021F0004820C2F340010B4363F341028DF84820AD
:102200002EE79DF84A30022161F30203E8E79DF8CA
:102210004A10022002F0780260F30201402A8DF891
:102220004A1002BF9DF8481041F001018DF8481096
:10223000632BDBD1131E18BF0123D8E79DF84A306A
:10224000032161F3020312F0780F8DF84A3014BFB6
:1022500001230023CBE79DF8483043F001038DF8BC
:102260004830C3E79DF94820002AB4BFDDF84C8010
:102270004FF0FF3806E79F077FF513AFDDF850B04A
:102280009DF849100023CDE913339DF84A3003F03F
:102290000703012BC1F3C30133D1CB1E042B04D898
:1022A000DFE803F0214646212100236801294FEA97
:1022B000E372CDE910321CD19DF94030DA17CDE937
:1022C000103204349DF8483013F0030750D0049BBB
:1022D00003983246514608F0D8F80028C0F25081E1
:1022E0000544049EFCE554F8043BDA17CDE91032AE
:1022F000E8E70229E5D11AB243F3C033CDE9102350
:10230000DFE7022B24D1CB1E042B04D8DFE803F037
:10231000181010181800012954F8043B4FF000025F
:1023200014D00229CDE91032CCD19BB21093C9E769
:10233000073424F00704F4E80223CDE91023C1E7B1
:1023400054F8043B109300231193BBE7DBB2CDE7B5
:10235000042B08D1073424F00704D4E900230834FF
:10236000CDE91023AEE7032BACD154F8043BDDE7F5
:102370009DF84B007828B4D862281DD825283FF452
:10238000B7AD5828ADD10DF13E030093DDE9100142
:102390000AAB12AAFFF750FDBBF1000F814680F295
:1023A0009980B9F1000F9CD00DF13E06A6EB090310
:1023B000002F50D001334EE06338152891D801A288
:1023C00052F820F045240000A9240000E322000078
:1023D000E3220000E3220000E3220000A924000021
:1023E000E3220000E3220000E3220000E3220000D9
:1023F00035250000CF240000F7240000E322000070
:10240000E32200001D240000E3220000CF2400008E
:10241000E3220000E3220000CF240000BBF1000F04
:10242000DDF840900ADB5946484608F00EFDB9F148
:10243000000F3FF456AF09EB000677E04846FEF781
:102440006DFEF8E7109B8DF8283000270DF1290666
:102450000DF1280901239DF84A1011F0100206928F
:1024600000F082800233139A059213444A0644BF57
:1024700014995B18B8F1000F40F38F80A8EB0308A4
:102480009DF848305807C3F3800B00F18680590649
:1024900079D53FB1039B51463846984700286FDBFA
:1024A00001355F4630236FE01E075CBFC3F30013A6
:1024B0005F01DDE9102348BF2B27002BBFF663AF78
:1024C000524263EB4303CDE910232D275BE700273E
:1024D00059E700279DF848100DF13E03A3EB0903CF
:1024E0006FF386119B458DF848107FF65AAFABEB22
:1024F0000303139355E7109880B30DF13E060AAB22
:10250000009612AA0021FFF797FCBDF84A3003F0AD
:10251000EF0343F4F04343F01003BBF1000F814697
:10252000ADF84A30D5DA00283FF4DBAEA6EB09035C
:10253000002790E7109B07293FF6D3AEDFE801F0B4
:102540000C04060C08080C0C1D70CAE61D80C8E6B9
:10255000EA17C3E90052C4E61D60C2E6304E0746E2
:10256000A6F10509052376E7080748BF01337AE796
:10257000184607935146039B98470028079B04DAA7
:1025800017B0BDE8F08F2023C346594600290BF150
:10259000FF3BEDDC45446D1AD84637B1039B5146ED
:1025A000384698470028EBDB01359DF84A30DA06BB
:1025B00001D41B0706D5039B5146302098470028BD
:1025C000DEDB0135069B3BB19DF84B00039B51467A
:1025D00098470028D4DB0135059F2F4406E0039B74
:1025E0005146302098470028CADB01357B1B002B61
:1025F000F5DC039833464A46514607F046FF00286B
:10260000BEDB0544A844A8EB0503002B7FF769AEA9
:10261000039B5146202098470028B1DB0135F2E7A3
:102620009BB8000008B504464FF02002EFF3118379
:1026300082F31288BFF36F8F03F0E2F9204601F0B6
:1026400009FE034807F0A1FE00F0E6FEFCE700BF2C
:102650009CB8000003F02EBA2DE9F84FDFF8FCA07B
:102660003F4FAAEB07039F2B814688460BD93D4974
:102670003D4A3E484FF48C7307F025FF4FF48C71B0
:10268000394807F019FF3A4807F02FFF064600289F
:1026900034D13C4605464FF0010B544527D9354906
:1026A000314A324840F2251307F00DFF324807F057
:1026B0000AFF40F22511E3E7237B73B12368DB684F
:1026C0000BB12046984723681B6943B9636804220D
:1026D0001968204600F00CF901361034DDE7204679
:1026E00098470028F2D00BFA06F31D43F4E7E3D332
:1026F000B9F1000F02D04FF0010A0DB9BDE8F88F13
:10270000A94695FAA5F4B4FA84F40AFA04F326016A
:1027100007EB04146FEA030B25EA0305237B5BB187
:10272000BB591B69A3B93E4404227368204619684B
:1027300009EA0B0900F0DCF8002DE2D1B8F1000F36
:1027400004D04FF4A470002106F05CFC4D46D4E7A1
:10275000204698470028EFD1E5E700BFD8B1000038
:10276000B8B10000F2B80000C5B800003FB50000E5
:102770003004002016B9000037B90000014B53F8AF
:102780002000704708B2000008B5034608462BB188
:10279000044A136000F0F0FA002008BD6FF0150045
:1027A000FBE700BFB4000020054A06480023137071
:1027B000054A1360054A4FF400411360FFF7E4BF78
:1027C0008C0D0020E7A40000280400202C04002029
:1027D00070B5134D297809BB0120FFF73DFF114C5F
:1027E000114EB44217D91149114A124840F28713C9
:1027F00007F069FE104807F066FE0D4840F28711A9
:1028000007F05AFE63685B791BB1236820469B681A
:1028100098471034E5E7F5D301232B7070BD00BF56
:102820008C0D0020B8B10000D8B1000016B900002E
:10283000C5B800003FB5000037B9000010B5044628
:10284000084807F052FE5CB1BFF35B8F064B53E8BC
:10285000001F013943E80012002AF8D1BFF35B8F53
:1028600010BD00BF280400202C04002070B5124BBE
:10287000124C1B68124E05469847A860B44218D9FE
:102880001049114A11484FF4E27307F01CFE10483A
:1028900007F019FE0C484FF4E27107F00DFE636873
:1028A0005B7923B1236829461B682046984710347A
:1028B000E4E7F4D370BD00BFB4000020B8B100005D
:1028C000D8B1000016B90000C5B800003FB500003F
:1028D00037B90000044A054B9B1AB1EBD30F34BF44
:1028E00052F831000020704720B10000B8B100005C
:1028F0000E4BC31A1B11013310B5DBB248B90C499A
:102900000C480D4ADE2307F0DEFD0B48DE2107F000
:10291000D3FD4468237143689A7143681960436822
:1029200001225A71BDE8104007F001BEB8B10000A5
:10293000DAB900003FB50000A2B900002DE9F04F60
:1029400085B002AFD7E90EA93D6B04460E4693460B
:102950009846BAF1000F15D0C7F80490CDF8009052
:1029600010217A6B53460020FEF762FD011E0ADA41
:102970001E491F4A1F48752307F0A5FD75211C48F5
:1029800007F09AFD51461C4A04F007040BF0070BB0
:10299000E40044EA8B1402EA4122144344EA055459
:1029A00017350D4425F00705ADEB050D02ADBAF165
:1029B000000F11D0CDF800907A6B534605F110004E
:1029C000FEF736FD002807DA0849094A09488F232F
:1029D00007F079FD8F21D2E743462246314628464B
:1029E00007F0A8FD0C37BD46BDE8F08F26BA000001
:1029F000FAB900003FB5000000FE0F000EB403B5A9
:102A000003AB014653F8042B0448019307F0D4FDAF
:102A100002B05DF804EB03B0704700BF67A500008B
:102A2000CA0605D48B064CBF02490349FFF7E6BF2F
:102A3000704700BF77D0000030BA00002DE9F04F9A
:102A400089B09A46DDE913739DF848B00593159B4C
:102A5000169E069204460D460493BBF1000F00F04B
:102A6000858006F00803079307F062FD06F002096F
:102A70000246002849D08D492046FFF7BFFF804617
:102A8000B9F1000F08D016F0440F40D188492A460A
:102A90002046FFF7B3FF804406F0010353B1854B96
:102AA000854953F82B20854B2046002A08BF1A463B
:102AB000FFF7A4FF06F00803002B54D0804B814998
:102AC00053F82B202046FFF799FF0546069B2BB1B4
:102AD0007D491A462046FFF791FF0544BAF1000FE1
:102AE00005D07A4952462046FFF788FF0544454401
:102AF000002F49D1049B002B60D1F30700F1CF8058
:102B000031462046FFF78CFFC3E08046B8E7704BA4
:102B100018680028BFD06F4B4FF47A791B68B5FB5B
:102B2000F3F54FF46161B5FBF0F300FB135509FBBE
:102B300005F54FF03C0CB3FBF1F201FB1231B5FB94
:102B4000F0FEB1FBFCF300FB1E550CFB131109FB5F
:102B500005F50091B5FBF0F55F49CDE901E52046AB
:102B6000FFF74CFF97E706F00805AFE7BAF1010F52
:102B700006D1EFB9049B002B00F08B8000251DE0EF
:102B8000002FF7D0554814E0554856493B46224699
:102B900007F0C6FB00280EDA53495448544A4FF454
:102BA000027307F090FC52484FF4027107F084FC66
:102BB0004B485D46E9E7049B002B66D0DFF8348183
:102BC000DFF83491049F3146102F204628BF10278C
:102BD000FFF726FF4FF0000A554543DC059B4946A9
:102BE0001A782046FFF70AFF4FF0010A1AF0070F84
:102BF00003D141462046FFF701FF574539D9059BD0
:102C0000494613F80A202046FFF7F8FE0AF1010AA8
:102C1000BAF1100FEAD1394920464FF0000AFFF708
:102C2000EDFE5246059B9A5C354B995C11F0970F6F
:102C300008BF2E2233492046FFF7E0FE0AF1010AC1
:102C4000BAF1100F1AD01AF0070F03D141462046EF
:102C5000FFF7D4FE57455246E4D841462046FFF7D9
:102C6000CDFEEBE741462046FFF7C8FE0AF1010A18
:102C7000B2E725492046FFF7C1FEC7E7059B3B4465
:102C80000593049BDB1B04939CD1BBF1000F7FF4E5
:102C900034AF204609B0BDE8F04F07F094BC074AB6
:102CA00005492046FFF7AAFE2AE700BF38BA000010
:102CB0003CBA000018B2000007C8000033BA000098
:102CC0002CB2000061BA000067BA00006BBA0000C5
:102CD000380400203404002045BA000083A5000019
:102CE00067A50000B9A500009FBA00003FB500002D
:102CF00070BA0000B0BA0000A8BA0000B2BA000072
:102D0000E5D50000B4BA0000AEBA00002DE9F041EC
:102D10000F884B688E6886B005460C469046C7F310
:102D200082175BB1134A9B1A43F3CF0100291FDBC3
:102D30002078C0F3C200FFF7CDFD0346214660882E
:102D400051F8102B0097C2F34A22002A01EB02042B
:102D5000C0F30B1008BF0021CDE90308CDE9011431
:102D6000002231462846FFF769FE06B0BDE8F08133
:102D70000023E3E720B10000074A0021012390422D
:102D800006D8064A01B901231360054B1860704745
:102D900040085B000121F2E740420F0034040020AC
:102DA00038040020014B01221A7070478D0D00205D
:102DB000014B00201960704750040020024B03486B
:102DC00001221A7007F0FFBB8E0D00205CB20000DC
:102DD00010B5064B18680C46FFF7D0FC2146034699
:102DE000BDE8104002480F22184700BF50040020E1
:102DF0005CB20000F8B5194D07460E460424324671
:102E00003946002004F066FAC8B101232B70144B38
:102E10001B782BB93046F8BD5CB92C704FF0FF34ED
:102E2000002004F09FFA0028F4D02B78002BF3D177
:102E3000F0E7013C41F2883007F054FFF0E72B78CF
:102E400013B1013C04D12C702B78002BD7D1E1E7D2
:102E500041F2883007F046FFF6E700BF8D0D0020F5
:102E60008E0D0020014B002019607047680400207F
:102E7000024B034801221A7007F0A5BB910D0020F8
:102E800088B2000010B5064B18680C46FFF776FCB8
:102E900021460346BDE8104002480F22184700BFF4
:102EA0006804002088B20000F8B5074F0D460446BC
:102EB0004618B44201D12846F8BD14F8011BBB687E
:102EC00001485B689847F4E734AF000008B507484D
:102ED00007F081FE48B906490648074A7F2307F0F4
:102EE000F2FA05487F2107F0E7FA08BD34AF000089
:102EF00025BB00003FB50000E7BA00002DE9F8430C
:102F000005464FF02003EFF3118683F31288BFF3D9
:102F10006F8F204804F0B2FD68B91F4A1F4920484E
:102F2000942307F0D0FA1B491E4807F0CCFA9421ED
:102F3000194807F0C1FA17481B4FDFF8708004F0FA
:102F4000BBFD1B4B1C684FF00C097CB9114804F009
:102F5000A3FDC8B9104A17491148C22307F0B3FAB4
:102F60000C49154807F0AFFAC221E1E7D4E9012383
:102F7000002D18BF13462BB198F8102009FB02F260
:102F8000B85C98472468E0E786F31188BFF36F8F39
:102F9000BDE8F8836C040020EDB7000046B80000DF
:102FA0003FB500005BB8000080040020580B0020F3
:102FB0008C0400201AB8000031B8000070B5194B1D
:102FC0001C7CBFF35B8F04F01F0301229A40164B59
:102FD000610903EB8103D04353E8001F01EA0005B8
:102FE00043E80056002EF7D1BFF35B8F0A4213D09F
:102FF0000E4B0F4D8BB10C236343EA18E85C5178FC
:1030000007F040FB0020FFF779FF0C235C432A19EF
:1030100000232B51C2E9013370BD83F31188BFF344
:103020006F8FEFE7580B00209404002085A6000066
:10303000800400202DE9F041474B07461D7C4FF0EE
:103040002003EFF3118883F31288BFF36F8F434897
:1030500004F014FD68B9424A42494348942307F0FA
:1030600032FA3E49414807F02EFA94213C4807F0D5
:1030700023FA3A483E4E0C2404F01EFD6C433D4BAF
:10308000195D1A19B9B107CA06EB040C8CE80700E0
:1030900000221A55314804F0FFFC0446B0B9304A0A
:1030A00035493148C22307F00EFA2C49334807F05E
:1030B0000AFAC221DAE73946284600F069F8002802
:1030C000E8D007C8344484E80700E3E788F31188B0
:1030D000BFF36F8F0C236B43F218F35C002B39D0D6
:1030E0007B1C0FD0D2F808E02548264A4FF4004C4C
:1030F00000210023EEFB0C01FDF7A6FE0121381A8A
:1031000002F048FC05F044F90120FFF7F7FEBFF399
:103110005B8F1D4B6A0903EB820305F01F0101223F
:103120008A4053E8000F104343E800010029F8D11A
:10313000BFF35B8F154B33B10C236B43F218F05C7C
:10314000517807F093FAFFF739FF05F08DF9204623
:10315000BDE8F0811C46FAE7580B002070040020FF
:10316000EDB7000046B800003FB500005BB80000B6
:1031700080040020740400201AB8000031B8000058
:103180003F420F0040420F00940400206DA6000053
:103190002DE9F04F85B00E4603A900F043F81E4B11
:1031A000039DD3F800A0DFF87480431E1BB203EB2D
:1031B0004303044605EB83054FF400474FF0000B33
:1031C00024B9A146484605B0BDE8F08F6868144AA6
:1031D000C4465946E0FB07C100236046FDF734FEB4
:1031E0000190A8680E4AC4465946E0FB07C1002377
:1031F0006046FDF729FEBAF1FF3FA94601D082459E
:1032000005D9731CDED0019B1844B042DAD9013CC9
:10321000A4B20C3DD4E700BFB80000203F420F002D
:1032200040420F0008B9024B0B600020704700BFFE
:1032300098B20000014806F0CBBE00BF98B2000073
:1032400038B5044618B90F4B0F485B68984761685A
:10325000B1F5683F0FD0B1F5680F0CD00B4DA94206
:1032600009D011F4686107D00948214604F082FAB8
:1032700000232360656038BD2068142207F0DDFD5F
:10328000F8E700BF840100205CBB00002C5F5CA954
:103290009809002008B520B34368B3F5683F10D102
:1032A00001220368BFF35B8F53E8001F002903D19D
:1032B00043E800200028F7D1BFF35B8F0DD1002039
:1032C00008BD094A93420AD000684FF0FF324FF020
:1032D000FF3304F02BFC0028F1D00448F0E7044849
:1032E000EEE76FF4E040EBE72C5F5CA9E98FFFFFAE
:1032F000EA8FFFFF08B5D8B14368B3F5683F10D136
:1033000000220368BFF35B8F53E8001F012903D13C
:1033100043E800200028F7D1BFF35B8F0BD10020DA
:1033200008BD074A934208D0006804F0CFFCF6E7D6
:103330006FF4E040F4E70348F2E70348F0E700BF2A
:103340002C5F5CA9E98FFFFFEA8FFFFF10B50446F1
:1033500018B91D4B1D485B6898476368B3F5683F13
:103360002FD0B3F5680F2CD0194A934219D1236896
:1033700003BB18484FF0FF324FF0FF33214604F0F3
:103380008FF908B923681BB90F4B13485B6898473E
:1033900020681422002107F050FD4FF46863636039
:1033A00008E0B3F5683F0DD83A2B03D040F6BA6277
:1033B0009342DED1206807F06EFC636843F03A0365
:1033C000636010BD054AF3E7840100205CBB000088
:1033D0002C5F5CA99809002082BB00003A00003AEB
:1033E00008B5064906484023142207F029FCBDE829
:1033F00008400449044806F05DBE00BF9804002060
:1034000098090020A0B20000B4B2000001491022C7
:103410000A60704710ED00E072B6404080F31188FA
:10342000BFF36F8FBFF34F8F30BF62B6BFF36F8FA5
:10343000704700BF72B6494081F31188BFF34F8FC8
:1034400020BF80F3118862B6704700BF70B5064692
:1034500086B00D46002938D08B6805934B680493DD
:103460000B68039300241C4B1C4902930122234642
:103470002046CDE9004407F0B7F86B6905932B6946
:103480000493EB680393164B14490094CDE9014370
:1034900001222346204607F0A7F8EB690393114B5E
:1034A0000E490094CDE9014301222346204607F04E
:1034B0009BF8AB6903930C4B08490094CDE9014399
:1034C00001222346204607F08FF82946304606B0F1
:1034D000BDE8704003F050BFAFBB000090B10000EA
:1034E000DEBB00000DBC00001CBC000040B2002888
:1034F00007DB044A4109012300F01F00834042F822
:103500002130704700E100E040B200280CDB4309A5
:10351000064900F01F0020330122824041F8232099
:10352000BFF34F8FBFF36F8F704700BF00E100E024
:10353000054B420900F01F0053F82220012303FA33
:1035400000F01040704700BF00E100E038B54B1CB0
:10355000072B04460D460FD9114A124912485B2326
:1035600006F0B1FF114829460723224606F0ABFFBB
:103570000B485B2106F0A0FF40B20028ACBF00F171
:1035800060400B4A4FEA4313B8BF00F00F00DBB2B4
:10359000AABF00F56140135480F8003338BD00BF66
:1035A0004ABC000080BC00003FB500009BBC00008E
:1035B00014ED00E030BFFFF7FDBF00BF0B4A08B5B8
:1035C0000B4B22F07F029A60BFF34F8FBFF36F8FD8
:1035D000D3F8882022F47002C3F8882003F084FF17
:1035E00005F082FE00F00CFC03F0C2FF00000000BA
:1035F00000ED00E0094A0A4993680968D96709495A
:1036000098674B6843F080534B60002383F3118825
:10361000BFF36F8F9368D86F704700BF580B0020BF
:1036200018B4000000ED00E012498A684FF0300045
:103630001044EFF3098C80E8F01F202080F31288FB
:10364000BFF36F8F0C4F4FF000668A698A603E604F
:10365000906F0023936780F3118804B5104600F043
:103660006BFCBDE8044002F1300090E8F01F8CF3E1
:1036700009887047580B002004ED00E01EF0040F8D
:103680000CBFEFF30880EFF30980816911F8021C89
:103690000229FFD001B506F0B7FF01BD42F8203C7A
:1036A000009B42F81C3C0A49019B42F8183C029BD3
:1036B00042F8143C21F001014FF0807342F8043CC1
:1036C00042F8081C0023203A02658367704700BF58
:1036D000A5A30000094A0346906870B113F1160FC4
:1036E000806E05D0A0F140029A4205D8834203D2F1
:1036F000814228BF0020704700207047580B0020EF
:1037000008B5094B0D461446986000F015FC20469C
:1037100085F30988002163B681F31188BFF36F8FA9
:103720000022002306F03EFE580B002001B572B6C1
:103730000B4A506900281EBF0021516107F09CFA16
:1037400062B6EFF30580A0F110004FEAC000054912
:10375000014409C99847BDE80140034908470000F2
:10376000580B00207CAF00006D370000044B9968B7
:103770009869884203D003494FF080520A6070472D
:10378000580B002004ED00E0F0B585B00024434B59
:103790000293CDE90044234607460E4601224049E4
:1037A000204606F040FF3F4B9B6ADB0465D53E4B4D
:1037B0003B490094CDE9014320462346012206F00F
:1037C00032FF1720374B9B6A1D050AD5374B0293F2
:1037D00000231846CDE900333149012206F023FFCA
:1037E0001820304DAB6A9C051FD50024304B029346
:1037F000012223462046CDE90044294906F013FF63
:10380000AB6BAA6A10040FD503932A4B244900948A
:10381000CDE9014301222346204606F004FF1FB1F3
:10382000AB6A23F40043AB6219201E4B9B6A590517
:103830000AD5214B029300231846CDE900331849DD
:10384000012206F0F0FE1A20164A936A13F48073E0
:1038500015D01A4B029300231846CDE900331049C6
:10386000012206F0E0FE1B200E4A936A43F47F43D8
:1038700093620023337005B0F0BD1620A2E7926A70
:103880009204F1D50E4A06490093CDE9013218465B
:10389000012206F0C8FE1C20E6E700BFDBBC0000EA
:1038A00090B1000000ED00E0F1BC000002BD00009E
:1038B00015BD00002EBD000043BD00005EBD000030
:1038C00076BD00001FB50024374B0293012223462A
:1038D000CDE900443549204606F0A5FE344B9B6AED
:1038E0009A015ED5334B31490094CDE9014320461E
:1038F0002346012206F097FE1E202D4B9B6ADB011A
:103900000AD52D4B029300231846CDE900332749F1
:10391000012206F088FE1F20254B9B6A1C030AD556
:10392000264B029300231846CDE900331F4901229C
:1039300006F079FE21201E4B9B6A59030AD5204BC5
:10394000029300231846CDE900331849012206F0FE
:103950006AFE2220164B9B6A9A030AD5194B0293E2
:1039600000231846CDE900331049012206F05BFE22
:1039700023200F4B9B6ADB030AD5134B02930023D2
:103980001846CDE900330949012206F04CFE2420F7
:10399000074A936A6FEA03436FEA1343936204B0E2
:1039A00010BD1D20A9E700BFA5BD000090B100001B
:1039B00000ED00E0BDBD0000D0BD0000EABD00008C
:1039C00008BE00002DBE000047BE00002DE9F043F8
:1039D00085B00024564B0293CDE90044234680462F
:1039E0008946204653491646012206F01CFE524BDA
:1039F0009B6AD80640D5514B0094CDE9014320463F
:103A000023464C49012206F00EFE11244A4B9B6AC4
:103A100019070AD54A4B02930023CDE900334549E3
:103A20000122184606F0FFFD1224434DAB6A9A07A7
:103A300024D50024434B0293CDE9004423463D495D
:103A40000122204606F0EFFD6F6BAB6A1B0659D5CD
:103A50003D4B38490397CDE90143009423460122A9
:103A6000204606F0E0FDB9F1000F03D0AB6A23F069
:103A70008003AB62132403E01024C7E76FF015073F
:103A80002D4B9B6AD8070AD5304B02930023CDE912
:103A9000003328490122184606F0C5FD1424264BA0
:103AA0009B6A99060AD52A4B02930023CDE900337D
:103AB00020490122184606F0B6FD15241E4DAB6ABA
:103AC000DA0602D4AB6A9B070AD56B68180507D5DE
:103AD00041463846FFF7FEFDB8B180F3098802245D
:103AE000154B9A6A920642BF5A6A22F400525A62F1
:103AF0009A6A42F0FF029A6220460023337005B0B2
:103B0000BDE8F0836FF01507B4E7AB6AD906E7D5D7
:103B10001049114A114840F25B1306F0D4FC1048DA
:103B200006F0D1FC0C4840F25B1106F0C5FC00BF6A
:103B300072BE000090B1000000ED00E088BE000001
:103B400002BD0000BBBE0000D3BE0000E9BE000005
:103B500076BD000042BF000008BF00003FB5000076
:103B60008CBF00002DE9F041894B0446586890B0A5
:103B7000C0F30806002383F31188BFF36F8F02F0B0
:103B80007F45B5F17F4F0CD102F00C05082D17D100
:103B9000804A81490093CDE901321846012206F09E
:103BA00042FD7E497E4A7F4840F23E4306F08BFC50
:103BB0007D4806F088FC40F23E41794806F07CFCE6
:103BC000120746BF0C461D460125002CE9D04FF0D8
:103BD0000008F31E8DF81F80092B00F2BF80DFE87C
:103BE00003F005B3B796BDBDBDBDBDBB6F4B6A4904
:103BF000674FCDF80080CDE90183002301221846EC
:103C000006F011FD8DF81F80FE6A16F0020605D041
:103C1000674BCDF80080CDE9018306E0FB6A002BFD
:103C20000BDA644B0096CDE9016300235A49012267
:103C3000184606F0F8FC002230E0FB6A5B0076D5FF
:103C40005D4B55490096CDE901630122334630466C
:103C500006F0E9FC7B69A26943F480737B61BFF3E2
:103C60004F8FBFF36F8F7B6932F8022C23F4807380
:103C70007B61BFF34F8FBFF36F8F4DF602739A4294
:103C80002CD1236803934D4B43490096CDE9016342
:103C900001223346304606F0C6FC22689DF81F30EC
:103CA000CBB908AE04F1200720686168334603C32E
:103CB0000834BC421E46F7D10F9B002D62D0C3F3DF
:103CC000080121B96FEA53236FEA43230F9308A930
:103CD0001046FFF7BBFB10B0BDE8F081BB6ADBB25A
:103CE0003BB10DF11F0201212046FFF76FFE024696
:103CF000D4E7BB6A13F47F4F05D00DF11F010120FB
:103D0000FFF742FDF3E7BB6AB3F5803F02D3FFF74D
:103D1000D9FDECE72A49224A22484FF4447306F0C1
:103D2000D2FB284806F0CFFB4FF4447145E7244905
:103D30001B4A1C484FF4457306F0C5FB224806F0A9
:103D4000C2FB4FF4457138E70DF11F020021CBE7AC
:103D50000DF11F010020D3E71C4B5AE71C4A1D4BF5
:103D60000D4910F4F87F18BF1346103ECDE9033615
:103D7000194B02930023CDE900330122184606F0C7
:103D800052FC58E723F4FF7323F001039EE700BFC2
:103D900000ED00E0DDBF000090B1000008C00000B1
:103DA00008BF00003FB500001BC0000059C0000064
:103DB00070C0000091C000009FC00000BEC00000A5
:103DC000F6C90000DAC00000FEC000002EC10000ED
:103DD000C4BF0000AFBF000052C10000024A5369D7
:103DE00043F010035361704700ED00E0EFF30880EB
:103DF000EFF3098101B57246FFF7B4FE01BD00BFC4
:103E0000044800232021C2180133302B82F800130C
:103E1000F9D1704700E100E0002080F31488BFF37F
:103E20006F8FFEF717FC00200D490860BFF34F8F1E
:103E30000C4880F3088800F02BF8202080F31188CC
:103E400009484FF40461401880F30988EFF31480A7
:103E50000221084380F31488BFF36F8FFFF7AEFB96
:103E600094ED00E0801F0020C01100200749D1F828
:103E700090200023C2F307221846934200DB7047CC
:103E8000C1F89830C1F8A0000133F6E700ED00E07A
:103E900008B572B6002383F31388FFF7E7FF144BCE
:103EA0004FF0FF32C3F88020C3F88420C3F8882085
:103EB000C3F88C20C3F89020C3F89420C3F898204E
:103EC000C3F89C20C3F88021C3F88421C3F888215B
:103ED000C3F88C21C3F89021C3F89421C3F898212A
:103EE000C3F89C2162B6BFF34F8FBFF36F8F08BD3D
:103EF00000E100E0084B9B6883420BD1EFF30583A0
:103F000043B1064B5A6842F080525A605A6A22F412
:103F100000425A6205F0B0B8580B002000ED00E0F6
:103F2000024B034A0348012100F086B80000042038
:103F300000000020C4B20000826E054B403A1A60B7
:103F4000044A4021C3E901121846012100F09AB841
:103F5000B809002000000B15F0B5284E85B00025EB
:103F60008D4215DA4468002C45D0D3B104F1FF3CF2
:103F700014EA0C0F0FD0224B039502930023012269
:103F8000CDE900331F49184606F05DFB6FF01502BE
:103F9000104605B0F0BD1F2CEDD907681CEA070FCD
:103FA000E9D1202C0768D0F808C05FFA82FE10D94A
:103FB000B4F1004F0FD8013CB4FA84F4C4F11F04EB
:103FC0006400BEF1070F4CEA040C06D90E4B0392B5
:103FD000D3E70824F5E73E24F3E727F01F04144352
:103FE00044F01004C6F89820C6F89C404CF0010438
:103FF000C6F8A040013201350C30B1E700ED00E019
:1040000069C1000088B100008CC10000044B05228A
:10401000C3F89420BFF34F8FBFF36F8F704700BF7B
:1040200000ED00E0BFF35F8F024B0022C3F8942045
:10403000704700BF00ED00E038B50D4D01232A7830
:104040000C46FFF789FF287016300FD1094A0A493C
:104050000A484FF48D7306F036FA0948214606F0F7
:1040600032FA04484FF48D7106F026FA38BD00BFCD
:10407000920D0020B2C10000F6C900003FB500005B
:10408000E9C1000010B5124A002312780C46FFF770
:1040900063FF10F1160F04D00E4B0022072810DD2D
:1040A00010BD0D4A0D490E4840F2391306F00BFAC7
:1040B0000C48214606F007FA074840F2391106F08D
:1040C000FBF9C3F89800C3F8A0200130E6E700BF71
:1040D000920D002000ED00E0B2C10000F6C9000022
:1040E0003FB5000015C20000254910B50C68082C2A
:1040F00010D9244A2449254840F2511306F0E3F927
:1041000021462348082206F0DEF940F251111D48ED
:1041100006F0D2F9FFF786FF48681E490022944254
:1041200000F10C0016D11C4B1C70FFF76FFFD1F88B
:104130009030C3F30723082B1FD01849114A1348A6
:1041400040F2B71306F0BFF9154806F0BCF940F28B
:10415000B711DCE7C1F8982050F80C3C23F01F039E
:10416000134343F01003C1F89C3050F8043C43F073
:104170000103C1F8A0300132D1E7002010BD00BF1B
:10418000D0B20000B2C10000F6C900003FB5000087
:1041900042C2000000ED00E0920D002076C2000057
:1041A000C6C2000008B50B4BC3F1005303F58023D2
:1041B000B3F5006F0CD20849084A0948802306F07D
:1041C00082F9084806F07FF90448802106F074F966
:1041D000002008BD0024002017C30000E7C2000033
:1041E0003FB500005EC30000014B1860704700BF80
:1041F000DC00002010B54FF02003EFF3118083F3B3
:104200001288BFF36F8F114A0123C2F840354FF077
:1042100080424FF08051C2F87835D1F83041082CF7
:1042200008D1D1F83411052904D8094C615C09B1D1
:10423000C2F838364FF080430122C3F8802580F35E
:104240001188BFF36F8F002010BD00BF00E0014058
:10425000F4C300004FF08043C0B2C3F81C05BFF3A5
:104260004F8F0549054BCA6802F4E0621343CB60E7
:10427000BFF34F8F00BFFDE700ED00E00400FA053B
:1042800020B1034B800143F001031847704700BF82
:10429000F0B10000054B0122C3F8002590F88E1004
:1042A00009B1DA6070471A605A60704700700040C8
:1042B0007FB50D7905F01F04072C25D80A780B2A45
:1042C00018D8DFE802F007070707170617171113BA
:1042D000171504224B78032B1AD0042B4FF0000340
:1042E00017D0304A029208E00522F3E70622F1E7F0
:1042F0000722EFE72C4B02930023CDE900332B4933
:104300000122184606F0C4F96FF0150004B070BD24
:104310000123488844F20A06B0423DD00AD844F24C
:104320000306B04214D044F20506B04232D098B32E
:104330001F4BE0E744F21406B0422FD044F22806A7
:10434000B0422DD044F20F06B042F1D1032000E07C
:104350000020C5F34015120242EA055242EA033238
:10436000230103F1804303F5E04342EA0042C3F82E
:104370001825230103F1804303F5E0438A79C3F84C
:1043800014250020C3F810050A4B4A79234483F80A
:10439000A820BBE70120DCE70220DAE70420D8E709
:1043A0000520D6E71DC40000FEC3000050B1000088
:1043B00041C4000000000020F0B54668731EFE2BCB
:1043C00087B004464FF0000309D96B4A0292CDE949
:1043D00000336A490122184606F05AF914E0684D84
:1043E000684F1A46184626FA02F313F0010335D037
:1043F000BB5C6BB90392644A0292CDE900335F491A
:104400000122184606F044F96FF0150007B0F0BD20
:1044100005EB021E94F811C0DEF81815BCF1000C73
:1044200018BF4FF0010C21F0807141EA0C61CEF809
:10443000181502F15101090101306B50C0B201326F
:10444000082AD0D1227CA2F108010023062918D81D
:10445000DFE801F01E1720170917150002F15101BE
:1044600009016B50EBE70223454A0128C2F8F035F9
:10447000637C11D993B1454B02930023A7E7032333
:10448000F2E70392424A0093CDE901320023B6E7F6
:104490000023E9E70123E7E7082B16D8C2F8F43533
:1044A00022684300B2B9E2689A4217D2CDE90323E9
:1044B000384B029300231846CDE900332F490122DF
:1044C00006F0E6F86FF00B00A0E70393324B02937F
:1044D000002392E7928902FB0333E4E7284BA268AA
:1044E000C3F82C262646C3F830060FCE2B4F07F113
:1044F0007C050FC533682B6000253D6723683E4669
:10450000A3B30FCB07F1900484E80F00FC67A7F872
:10451000A05058B3BFF35B8F56E8003F46E8005207
:10452000002AF9D1BFF35B8F1D49D7F890401D4A8F
:104530004FF400400E462946E4FB0061002330465C
:10454000FCF782FC0022CDE90001002307F10800FE
:1045500005F030FA97F8783063B913484FF0FF321E
:104560004FF0FF3303F084FC386F4FE70B48FFF741
:1045700091FEEFE7002049E76CC4000050B1000055
:1045800000700040A80000208AC40000C9C40000D8
:10459000A4C400001EC50000FBC4000000000020F1
:1045A0003F420F0040420F005800002070B50C46FB
:1045B00016460C4D0C484FF0FF324FF0FF3303F01E
:1045C00057FC0123204685F878306E67FFF7F4FE2C
:1045D00095F87830044603B110B1034803F004FCA9
:1045E000204670BD000000204000002038B50C4679
:1045F0000C4D0D484FF0FF324FF0FF3303F038FC05
:104600000023204685F878306B67FFF7D5FE95F8D4
:104610007830044603B110B1034803F0E5FB2046AF
:1046200038BD00BF000000204000002010B50E4B38
:104630000024C3F80441D3F80421C3F81041D3F88F
:1046400010211222C3F804230720FEF74FFF224651
:1046500001210720FEF77AFF0448836C13B940302C
:1046600003F0C2FB002010BD0070004000000020DD
:1046700038B5344BD3F80421002A56D00022C3F8B1
:104680000421D3F80411304C01219960C3F80025AE
:10469000E36F2546D3B3D4F89430B4F8A02033B1F7
:1046A00004F17C019847012814D0022828D0B4F8DE
:1046B000A030B4F89C209A4222D90133A4F8A0304B
:1046C000204BD3F82C26D3F8341689B202EB4102E2
:1046D000C3F82C26D4F8903023B9BDE838401A48E6
:1046E000FFF7D8BDBFF35B8F55E8003F5A1E45E882
:1046F00000210029F8D1BFF35B8F012BEDDC38BD21
:10470000D4F8903013B1114806F0F0FA94F87830EC
:104710004BB1606F10B1002105F07CF90C48BDE889
:10472000384003F061BB0B48F9E7D3F810110029BA
:10473000E5D0C3F81021D3F8102101229A601A6045
:104740005A60DCE7007000400000002008000020F4
:10475000400000205800002037B50C460A490B4A9B
:10476000411A40230093491105462346084805F0A5
:10477000C9FF011E05DA2846234603B0BDE83040D4
:10478000184703B030BD00BFD80900206FA7000054
:10479000ECAE0000C9B2012908B509D90849094899
:1047A000094A7A2305F08FFE07487A2105F084FE36
:1047B00003690C2201FB0233986C00F0070008BD6E
:1047C0009CC500003FB500005FC5000070B5C9B2D0
:1047D000012903690BD9194919481A4A40F25D1396
:1047E00005F071FE174840F25D1105F065FE4FF0CF
:1047F0002004EFF3118584F31288BFF36F8F0C262A
:1048000006FB0134A46C14F0C00408D0A24206D008
:1048100085F31188BFF36F8F4FF0FF3070BD714388
:104820000B4401229A6485F31188BFF36F8F4368AC
:104830000B445B6898470020F0E700BF9CC5000070
:104840003FB500005FC5000070B50D460649411A2E
:104850000446491105484022FFF7B8FF2B460146A0
:104860002046BDE870401847D8090020ECAE000093
:10487000002270B5012104461046FEF767FE0F487E
:1048800001F0B4FA0E4B984215D101F0D3FA266923
:104890000C49304605F0D2FD00280BDB0125B5643C
:1048A0002469084904F1200005F0C8FD002801DB57
:1048B0006565002070BD6FF00400FBE7FD48000057
:1048C0000000AD0B00B3000070B501460C23094891
:1048D0004B43C418D4E910564833002218442264CC
:1048E00005F0FDFE2DB132462B460348BDE8704071
:1048F000184770BDD8090020ECAE0000012808B5AB
:1049000006D0032808D098B90F4B9B6C5B0719D1D0
:10491000BDE80840FFF7D8BF0C490D4A0D4840F2EA
:104920006E2305F0D0FD40F26E21094805F0C4FD6C
:104930000649074A074840F2722305F0C4FD40F2D9
:104940007221F2E708BD00BFD8090020F6C90000B7
:104950005FC500003FB5000008B54FF02003EFF33E
:10496000118183F31288BFF36F8F124A136843F0EB
:1049700002001060DA0708D481F31188BFF36F8F4B
:104980000120BDE8084001F079BA4FF08043D3F828
:104990000C24D3F80C34D307EED5074805F09FFE5E
:1049A00081F31188BFF36F8F0020BDE80840FFF747
:1049B0008BBF00BF300A0020200A00207FB50022F4
:1049C0000123CDE9022304ABCDE90433094ACDF834
:1049D00000D06B46CDF804D005F0C2FE002805DB00
:1049E0004FF480420023684603F042FA07B05DF8B6
:1049F00004FB00BF87A7000010B54FF02003EFF3C2
:104A0000118483F31288BFF36F8F074A136823F072
:104A10000201DB07116002D4012001F08DFA84F35A
:104A20001188BFF36F8F10BD300A00202DE9F041CF
:104A30004549BFF35B8F0646012251E8003F41E83C
:104A400000200028F9D1BFF35B8FA3B93F4940484C
:104A50004B60CB608A60FDF715F900280BDA3D4901
:104A60003D4A3E484FF40C7305F02DFD4FF40C7198
:104A7000394805F021FD76B3731E012B59D8012E5C
:104A800007D14FF08043D3F81C3403F00303012B0C
:104A900021D006F0E4F80546F8B9314B1B78E3B1B4
:104AA0004FF080430222C3F808230746DFF8B480A2
:104AB0004FF08044D4F81834D4F81824D20316D513
:104AC00003F00303012B01D0012E10D15DB387F356
:104AD0001188BFF36F8FBDE8F0814FF02003EFF333
:104AE000118783F31288BFF36F8F0125DEE7ADB125
:104AF0003846FEF79FFCD4F81835002BDAD1D4F8ED
:104B00000421002AD6D0C4F80431D4F8043101239A
:104B1000C4F81835C8F88031A360CBE70021212004
:104B200004F070FAE7E74FF080430222C3F8042351
:104B3000D1E70D49084A094840F2422305F0C3FC79
:104B400040F2422194E700BFD4090020C4090020AC
:104B5000F80900209FBA00005FC500003FB50000C3
:104B6000A511002000E100E0F6C9000008B50748E3
:104B700006F031F838B10648FFF736FB0448FCF779
:104B800075FE002008BD6FF01200FBE734AF000097
:104B9000954B00000A2838B5074D044604D1AB6890
:104BA0000D215B6828469847AB6803485B68E1B213
:104BB0009847204638BD00BF34AF000010B50369E8
:104BC00061B92049204A21482A2305F07CFC20486D
:104BD00005F079FC2A211C4805F06EFC486850B9A4
:104BE0001C49194A19482B2305F06DFC1A4805F099
:104BF0006AFC2B21EFE75868F8B1884219D19C680C
:104C000008685860A14200D19860002008602AB16D
:104C10005A680A609A68596002B99960002010E0E9
:104C2000814206D10868206098688142EDD19C607D
:104C3000EBE7044600680028F2D1002AE8D16FF0C3
:104C4000150010BD25C60000E9C500003FB50000F5
:104C50002EC600003DC600004FC6000030B54068BB
:104C6000057B01F01F04B2F5001F85B044EA45142E
:104C700005D1204601F072FC002005B030BD0025B2
:104C8000B2F5800FCDE9025514D1B3F1007F0CBF0E
:104C9000042305238DF808300023194602AA204674
:104CA00001F066FA2B4B984251D10121204601F0C8
:104CB000E9FBE1E7B3F1C06F24D0B3F1007F14BF8B
:104CC000012302238DF808308368CB40D807E3D452
:104CD000B2F1A07FE0D1620904F01F0314D0012AD1
:104CE00004D14FF6FF72DA40D10715D41A491B4898
:104CF0001B4A40F2472305F0E6FB194840F24721E2
:104D000005F0DAFB0323DDE74FF0FF32DA40D2078C
:104D1000ECD54FF0A04200E0124A03F5E07352F8E0
:104D20002330DB07B8D40DF107052946204601F0F2
:104D300043FB0D4B984201D00395ADE7284601F0A7
:104D40009BFB044B9842F7D06FF00B0095E76FF098
:104D5000150092E70000AD0B99C600003FB50000BA
:104D600066C60000000300500400AD0B10B501F052
:104D700073FB044668B901F047FB084B98420AD11F
:104D80000748214601F012FB224605210620FEF7C6
:104D9000DDFB002010BD6FF00400FBE70000AD0B51
:104DA000A54D0000420970B5034602D0012A1ED06D
:104DB00070BD144E326951680029F9D003F01F0309
:104DC00001250C689D400029F2D08A682A4012D043
:104DD0004B6873B90C490D4A0D484D2305F073FB20
:104DE0000C4805F070FB09484D2105F065FB0A4EA3
:104DF000E0E7304698471CB1236821461C46E2E7AD
:104E00002346FAE71CAF0000BCC60000E9C500005D
:104E10003FB500004FC6000004AF00002DE9FF4180
:104E2000D0F8048098F80C3001F01F0545EA4315CE
:104E30000F4628460DF10301144601F0BDFA14F4A3
:104E4000403F064615D1284601F0B2FB494B9E4231
:104E500071D19DF8030001F009FBB0426BD04649C7
:104E6000464A47486A2305F02EFB6A21434805F06D
:104E700023FB0023194602AA2846CDE9023301F09C
:104E800077F93C4B984204D06FF0150004B0BDE8B0
:104E9000F08186420DD19DF8030001F0E7FAB0429F
:104EA00007D03549354A36487C2305F00CFB7C2178
:104EB000DCE7A6034ED540F206332340B3F5837FEB
:104EC00019D00CD8062B17D004D8ABB1022BDBD1EC
:104ED000042311E0B3F5807FD6D101230CE040F22A
:104EE0000222934229D0B3F5407F28D0B3F5007F4A
:104EF000CAD1022300E007238DF8043084F4803304
:104F0000C3F30043E0068DF8053054BFC4F34013EB
:104F1000032321038DF8063013D5D8F8042001238C
:104F2000BB40C2F80835002201A9284601F0CAF9A1
:104F3000104B9842A8D10020A8E70523DCE7032303
:104F4000DAE7620341BF0123D8F80420BB40C2F86E
:104F50000C35E8E7E3064FF0000354BFC4F34014F8
:104F600003241A4601A928468DF8044001F000F9EF
:104F7000DEE700BF0000AD0BF4C60000C8C60000AD
:104F80003FB5000008B503685A090DD0012A14D0B6
:104F90000F491048104A40F2472305F094FA0E4892
:104FA00040F2472105F088FA4FF0FF3222FA03F36E
:104FB000D907EDD54FF0A04008E003F01F034FF6EE
:104FC000FF72DA40D207E3D50360044808BD00BF92
:104FD00099C600003FB5000066C6000000030050FF
:104FE00002480021C2E90001002070470024F400BB
:104FF000032908B50BD908490848094A4FF4277313
:1050000005F061FA06484FF4277105F055FA01F5ED
:10501000AC7150F8210008BD56C700003FB5000034
:1050200024C7000008B503685A090DD0012A14D01E
:105030000F491048104A40F2472305F044FA0E4841
:1050400040F2472105F038FA4FF0FF3222FA03F31D
:10505000D907EDD54FF0A04008E003F01F034FF64D
:10506000FF72DA40D207E3D50360044808BD00BFF1
:1050700099C600003FB5000066C60000000300505E
:105080002DE9F04F8BB00329BDF850A047680569A2
:10509000884616461C460AF0010A0BD95B4B039161
:1050A00002930023CDE9003359490122184605F047
:1050B0005EFC1BE0BB7B012B04BF56086408012289
:1050C00002FA01F9002C76D0A64277D92B689E42CD
:1050D0001FD02B7B33EA09030DD04E4B02930023E4
:1050E000CDE900334A49184605F041FC6FF0150040
:1050F0000BB0BDE8F08F3246B2F5004F53D22E60B0
:105100006B733968B87BC1F80C35C1F80405C1F878
:1051100008256B7B24FA03F39BB24FF0010B05EBE0
:1051200048028AF0010143EAC13393806B7B38491E
:10513000CDE90663384B0393384B029308220023D2
:10514000CDE90032CDE904840422184605F00FFCB5
:105150005FFA89F9BBF1000F3FD138685FFA88F137
:10516000FFF746FF00280FDBBAF1000F49D0B4FA71
:1051700084F464093CBB099009A8FFF753FF099A1E
:1051800001239340C0F80C35297B21EA09012973DA
:1051900041B3AB7B6BBB0023012207F118013846FA
:1051A00001F074FC23E00133082B4FEA5202A3D133
:1051B0001B4B039674E7A3462346B0E74FF0000B62
:1051C00047F6FF73ABE7099009A8FFF72BFF099A91
:1051D00001239340C0F80835D6E72B7B49EA030347
:1051E0002B73D6E7384601F0EFFC0123AB730020A8
:1051F0007EE70023AB73384601F0BCFC0028FAD0F0
:10520000C9E7003C18BF0124B4E700BF62C7000033
:10521000A0B1000077C700000AC80000B6C70000B0
:105220008CC700002DE9F04145680669AF6A86B079
:10523000044605AA0021384605F0D7FA00284BDBC2
:10524000059B3A681979186805F0E2FA002843DBF3
:105250000027B8462868F9B2FFF7CAFE002810DB1D
:10526000059005A8FFF7DEFE059AD0F80435D34077
:1052700013F001031CBF0123BB4048EA03035FFA9C
:1052800083F80137042FE5D102360023012101FA0A
:1052900003F212EA080F0CBF012200220133D203ED
:1052A000042B26F8022FF2D100231A4605F108013B
:1052B000284601F021FB0B4B984210D02368039342
:1052C000094B029300231846CDE900330749012218
:1052D00005F04DFB6FF00F0006B0BDE8F081002037
:1052E000FAE700BF0000AD0BEAC70000A0B1000064
:1052F0007FB50BAB05930393054B02930023CDE9D8
:10530000003301221846FDF719FB07B05DF804FBD6
:1053100034C80000F0B54B79012B26D0032B21D1E6
:1053200010258B79032B1DD1CE790EB1012E19D109
:105330000A7912B1022A15D10E220B684468B3F51E
:10534000164F276867D02DD8B3F5165F66D016D8EC
:10535000B3F5966F64D00AD8B3F5967F63D0B3F5F2
:10536000167F63D06FF0850054E00025D9E7B3F5D0
:10537000166F5ED0B3F5965FF4D1384B3CE0B3F5D1
:10538000E14F59D007D8B3F5615F57D0B3F5964FC9
:10539000E8D1334B30E047F61224A342E2D14FF478
:1053A000000329E0B3F5613F4AD013D8B3F5963F27
:1053B00049D009D84DF6C024A34246D0B3F5614F79
:1053C000D0D14FF46B0317E0B3F5E13FCAD14FF0F2
:1053D000EB7311E0B3F5612F3AD008D8214CA3420A
:1053E00039D0B3F5E12FBDD14FF0E86304E01E4C96
:1053F000A342B7D14FF080530469C7F824354368FE
:1054000035431B682A43C3F86C2503C9231D83E871
:1054100003000020F0BD4FF41D03EDE7134BEBE755
:105420004FF49E23E8E74FF4A033E5E74FF41C3335
:10543000E2E74FF41D23DFE70D4BDDE70D4BDBE724
:105440004FF06C73D8E70C4BD6E74FF46503D3E706
:105450004FF07063D0E74FF08063CDE700B01300EA
:1054600000A04E0090D0030040420F0000502700E3
:1054700000C0750000F03A0000903A012DE9F043B9
:10548000002287B0804601210220FEF75FF802204B
:10549000FEF72CF8D8F80470D8F810603D680021A9
:1054A000C5F80015C6F80080D7F80C9005AA484644
:1054B00005F09BF9041E24DB059BD9F8002019791F
:1054C000186805F0A5F9041E1BDB311D4046FFF7E7
:1054D00021FF0446A8B97B6899072AD506F1180070
:1054E00001F06AF9274B98420FD0274B0094CDE981
:1054F00001432046234625490122FFF7F9FE6FF0BC
:105500000404204607B0BDE8F083337EDB0003F1DE
:10551000804303F5F83305F10C0205F59071C3F8EB
:105520001015C3F81425327E01239340184AC2F89F
:1055300004350823C5F800353B7A53B9C5F8103156
:10554000D5F810317369C5F834350123C5F83835FD
:105550002B607B689A075CBF4FF48073C5F80433F7
:105560007B68DB0644BF4FF48003C5F8043333691E
:10557000C5F844350023C5F848350123AB60EB601E
:10558000BFE700BF0000AD0B34C80000B0B10000A1
:1055900000F00140F8B5044607690D4605F05FFBD1
:1055A000B0B92E4B1B789BB16426606805F012FAE7
:1055B00000BB012005F068FA013EF6D10021212050
:1055C00003F020FDF0E786F31188BFF36F8FF5E756
:1055D0004FF02003EFF3118683F31288BFF36F8F30
:1055E0006068314605F0F6F990B986F31188BFF38B
:1055F0006F8FEDE74FF02003EFF3118683F31288EE
:10560000BFF36F8F6068314605F0E4F90028DAD007
:105610003B691D70626838691368C3F8440501204E
:10562000C3F848050020C3F82001D3F82051C3F87F
:1056300058015268D3F85801D20608D5626812683A
:105640000820C2F800054FF48002C3F804230122A9
:105650009A6081F31188BFF36F8FF8BDA511002008
:1056600070B40E49D1E90034D01AC31844F10004D3
:1056700022F07F46C1E90034A6F50013B3F5400FD0
:1056800009D2074B1B681A0A1B069C19054B42F1ED
:105690000005C3E9004570BC03F0D8BF58020020E4
:1056A000640A0020600200200D4B1868010A000601
:1056B000BFF35F8F0B4BD3F80435181841F100018D
:1056C000B3F5801F0AD2084BD3E90023904271EB57
:1056D000030303D210F1807041F10001704700BF55
:1056E000640A002000100140600200202DE9F74309
:1056F0002F4CD4F8043399070BD5D4F8043143B1B7
:105700002C4A0023C4F80431D4F80431136801335F
:105710001360D4F80433DA032AD5BFF35B8F264B2A
:1057200053E8002F22F0010143E800100028F7D1D0
:10573000BFF35B8FD30702D4D4F84031C3B1002547
:10574000C4F84051D4F84031FFF7AEFF4FF02003CA
:10575000EFF3118283F31288BFF36F8F174BD3E9F6
:105760000267B042B94106D282F31188BFF36F8F4E
:1057700003B0BDE8F0834FF0FF384FF0FF39C3E9C5
:105780000289D3E900101D604FF48033C4F8483318
:10579000C4F84051D4F8403182F31188BFF36F8FC1
:1057A0000029E5D0009032463B4628468847DFE78F
:1057B00000100140640A00205C0A0020480200201A
:1057C0002DE9F84F4B4DBFF35B8F06460F4655E86A
:1057D000008F28F0010345E80032002AF7D1BFF31B
:1057E0005B8F454C4FF48039C4F80893BFF35F8F4B
:1057F000BFF36F8FFFF758FFB04271EB070308F05C
:10580000010840D23D4B301A67EB0101984271F11B
:1058100000014CD23A4BD3E902239F4208BF964283
:105820003ED04FF0000CC4F84893C4F840C126F0B5
:105830007F40D4F84031DFF8CCA0834603216FF0DD
:10584000020E2BF07F43C4F84035C4F84493D4F8DB
:105850000425AEEB02035B4423F07F4353451FD97D
:10586000D4F840315BB1D4F80425131A23F07F43F8
:10587000B3F5000F14D9C4F840C1D4F8403101EB9E
:10588000020B0131DDE7204BBFF35B8F53E8001FB4
:1058900041F0010143E80012002AF7D1BFF35B8F0A
:1058A000174B1A4A1A60C3E9026700225A60B8F11E
:1058B000000F1CD0BFF35B8F55E8003F43F001039E
:1058C00045E80032002AF7D1BFF35B8F4FF48033F5
:1058D000C4F804330C4BBFF35B8F1B68BFF35B8FC3
:1058E000DB0742BF0A4B4FF40032C3F80021BDE88A
:1058F000F88F00BF600A0020001001400100800006
:1059000048020020FDFF7F005C0A00206156000075
:1059100000E100E070B5194C194BC4F80833C4F825
:105920004833184B00254FF0FF304FF0FF31C4F8DB
:105930000855C3E902014FF48033C4F80433124B15
:1059400002264FF40032C4F804630121C3F8802119
:1059500011202A46FDF7FAFD1120FDF7C7FD0123AE
:105960000A4AA3600021236009481360FFF728FF5B
:105970003046FFF75BF8284670BD00BF00100140BD
:1059800003000F004802002000E100E0600A002050
:10599000FFFF7F00431C10B51DD001281DDD104AFC
:1059A000104B9042D4BF04461C46FFF77DFE0E4AC2
:1059B000D2E90031C01AB0F5000F0A4A28BF00240E
:1059C0000444944228BF1446E01841F10001BDE8A8
:1059D0001040FFF7F5BE034CE7E70124E5E700BF01
:1059E000FEFF7F00FFFF7F005802002008B5FFF791
:1059F0005BFE024B1B68C01A08BD00BF58020020A6
:105A000010B5084C012363601120FDF77DFD064BA6
:105A1000C4F80833C4F84833044B4FF40032C3F8D9
:105A2000802110BD0010014003000F0000E100E0E4
:105A30007FB50BAB05930393054B02930023CDE990
:105A4000003301221846FCF779FF07B05DF804FB2C
:105A500071C800001FB5FCF7BBFE0024064B029383
:105A60002046CDE90044054923460122FFF7E0FF27
:105A70002046FEF7EFFB00BF71C8000068B10000D0
:105A80004FF08053D3F83021082A06D1D3F83431AF
:105A9000052B02D8024AD05C70470020704700BF37
:105AA00094C80000024AD2F80034002BFBD07047A3
:105AB00000E0014010B54FF08053D3F83021082AA0
:105AC0004ED14FF080420021C2F80C11C2F81011E3
:105AD000C2F8381502F54042D3F80414C2F8201574
